:100000000C9433080C9477080C9477080C947708B8
:100010000C9477080C9477080C9477080C94770864
:100020000C9477080C9477080C942D2D0C94FF2DCC
:100030000C94A9230C9477080C9477080C947708F7
:100040000C9477080C9477080C9477080C94770834
:100050000C9477080C9410240C9477080C9477086F
:100060000C9477080C9477080C9477080C94770814
:100070000C9477080C9477080C9477080C94770804
:100080000C9477080C9477080C9477080C947708F4
:100090000C9477080C9477080C9477080C947708E4
:1000A0000C9477080C9477080C9477088E089808BD
:1000B000A208AC08B508BF08CA088C0992099609BD
:1000C00099099D09A109A509A909AE09B209B609AD
:1000D000BA09BD09C109C509C909CD09D2095B1908
:1000E0005B1995199519D819FA19901B901B401A8C
:1000F000901BE71AE71A5E1B651B901B8B1BF41AFB
:10010000F41AF41AF41AF41AF41AF41AF41AF41A7F
:10011000F41AF41AF41AF41AF41AF41AF41A061B5C
:10012000161B1D1B241B2E1B241C241C371C371CB8
:100130002D1C371C371C371C241C241C331C371C5B
:10014000371C331C642E8B2E792F8B2E792FD32EB8
:10015000F62E792F4C2F5B2F07634236B79BD8A71B
:100160001A39685618AEBAAB558C1D3CB7CC5763DC
:10017000BD6DEDFD753EF6177231BF000000803F8A
:1001800005A84CCDB2D44EB93836A9020C50B9915D
:100190008688083CA6AAAA2ABE000000803F00F07C
:1001A00001F002F003F004F005F006F029423A00F5
:1001B0003B003C003D003E003F004000410042004B
:1001C000430044004500460001514C0035001E002C
:1001D0001F0020002100220023002400250026000B
:1001E00027002D002E004C002A004A002B000000A2
:1001F00014001A000800150017001C0018000C005D
:10020000120013002F00300031004B0039000000B5
:1002100004001600070009000A000B000D000E0084
:100220000F0033003400280000004E00E1000151AF
:100230001D001B000600190005001100100036000B
:10024000370038000000E50052004D00E000E300F8
:100250000000E2002C0000002C0000002C00000038
:10026000E6000151E400500051004F000100010080
:100270000100010001000100010001000100010076
:10028000AC00AD00AE00AB000100C05C010001009D
:100290000100010001000100010001000100010056
:1002A0000100010001000100005CA7000100000046
:1002B000C05CC15CC35CC45CC55CC65CC75CC85C3C
:1002C00001000100010001000100A900010000007F
:1002D0000100010001000100010001000100010016
:1002E00001000100010001000000AA00010001005E
:1002F00001000100BB5CBD5CBC5CBE5C0100010098
:1003000001000100000001000100A800010001003F
:1003100000000100010000000100000001000000D9
:10032000A5000100A600010001000100010001304C
:100330000230010001000100010001000100010084
:1003400001000100010001000100010001000100A5
:100350000100010001000100010001000100010095
:100360000100010001000100010001000100000086
:100370000100010001000100010001000100010075
:100380000100010001000100010001000100000066
:100390000100010001000100010001000100010055
:1003A0000100010001000100000001000100010046
:1003B0000100010001000100010001000100010035
:1003C0000100010000000100010001000100010026
:1003D0000000010001000000010000000100000019
:1003E0000100010001000100010001000100010005
:1003F00001000100010001000100010001000100F5
:1004000001000100010001000100010001000100E4
:1004100001000100010001000100010001000100D4
:1004200001000100010001000100010001000000C5
:1004300001000100010001000100010001000100B4
:1004400001000100010001000100010001000000A5
:100450000100010001000100010001000100010094
:100460000100010001000100000001000100010085
:100470000100010001000100010001000100010074
:100480000100010000000100010001000100010065
:100490000000010001000000010000000100000058
:1004A0000100010001000100010001000100010044
:1004B0000100010001000100010001000100010034
:1004C0000100010001000100010001000100010024
:1004D0000100010001000100010001000100010014
:1004E0000100010001000100010001000100000005
:1004F00001000100010001000100010001000100F4
:1005000001000100010001000100010001000000E4
:1005100001000100010001000100010001000100D3
:1005200001000100010001000000010001000100C4
:1005300001000100010001000100010001000100B3
:1005400001000100000001000100010001000100A4
:100550000000010001000000010000000100000097
:100560000100010001000100010001000100010083
:100570000100010001000100010001000100010073
:100580000100010001000100010001000100010063
:100590000100010001000100010001000100010053
:1005A0000100010001000100010001000100000044
:1005B0000100010001000100010001000100010033
:1005C0000100010001000100010001000100000024
:1005D0000100010001000100010001000100010013
:1005E0000100010001000100000001000100010004
:1005F00001000100010001000100010001000100F3
:1006000001000100000001000100010001000100E3
:1006100000000100010000000100000001000000D6
:1006200001000100010001000100010001000100C2
:1006300001000100010001000100010001000100B2
:1006400001000100010001000100010001000100A2
:100650000100010001000100010001000100010092
:100660000100010001000100010001000100000083
:100670000100010001000100010001000100010072
:100680000100010001000100010001000100000063
:100690000100010001000100010001000100010052
:1006A0000100010001000100000001000100010043
:1006B0000100010001000100010001000100010032
:1006C0000100010000000100010001000100010023
:1006D0000000010001000000010000000100000016
:1006E0000100010001000100010001000100010002
:1006F00001000100010001000100010001000100F2
:1007000001000100010001000100010001000100E1
:1007100001000100010001000100010001000100D1
:1007200001000100010001000100010001000000C2
:1007300001000100010001000100010001000100B1
:1007400001000100010001000100010001000000A2
:100750000100010001000100010001000100010091
:100760000100010001000100000001000100010082
:100770000100010001000100010001000100010071
:100780000100010000000100010001000100010062
:100790000000010001000000010000000100000055
:1007A0000100010001000100010001000100010041
:1007B0000100010001000100010001000100010031
:1007C0000100010001000100010001000100010021
:1007D0000100010001000100010001000100010011
:1007E0000100010001000100010001000100000002
:1007F00001000100010001000100010001000100F1
:1008000001000100010001000100010001000000E1
:1008100001000100010001000100010001000100D0
:1008200001000100010001000000010001000100C1
:1008300001000100010001000100010001000100B0
:1008400001000100000001000100010001000100A1
:100850000000010001000000010000000100000094
:100860000100010001000100010001000100010080
:100870000100010001000100010001000100010070
:100880000100010001000100010001000100010060
:100890000100010001000100010001000100010050
:1008A0000100010001000100010001000100000041
:1008B0000100010001000100010001000100010030
:1008C0000100010001000100010001000100000021
:1008D0000100010001000100010001000100010010
:1008E0000100010001000100000001000100010001
:1008F00001000100010001000100010001000100F0
:1009000001000100000001000100010001000100E0
:1009100000000100010000000100000001000000D3
:1009200001000100010001000100010001000100BF
:1009300001000100010001000100010001000100AF
:10094000010001000100010001000100010001009F
:10095000010001000100010001000100010001008F
:100960000100010001000100010001000100000080
:10097000010001000100010001000100010001006F
:100980000100010001000100010001000100000060
:10099000010001000100010001000100010001004F
:1009A0000100010001000100000001000100010040
:1009B000010001000100010001000100010001002F
:1009C0000100010000000100010001000100010020
:1009D0000000010001000000010000000100000013
:1009E00001000100010001000100010001000100FF
:1009F00001000100010001000100010001000100EF
:100A000001000100010001000100010001000100DE
:100A100001000100010001000100010001000100CE
:100A200001000100010001000100010001000000BF
:100A300001000100010001000100010001000100AE
:100A4000010001000100010001000100010000009F
:100A5000010001000100010001000100010001008E
:100A6000010001000100010000000100010001007F
:100A7000010001000100010001000100010001006E
:100A8000010001000000010001000100010001005F
:100A90000000010001000000010000000100000052
:100AA000010001000100010001000100010001003E
:100AB000010001000100010001000100010001002E
:100AC000010001000100010001000100010001001E
:100AD000010001000100010001000100010001000E
:100AE00001000100010001000100010001000000FF
:100AF00001000100010001000100010001000100EE
:100B000001000100010001000100010001000000DE
:100B100001000100010001000100010001000100CD
:100B200001000100010001000000010001000100BE
:100B300001000100010001000100010001000100AD
:100B4000010001000000010001000100010001009E
:100B50000000010001000000010000000100000091
:100B6000010001000100010001000100010001007D
:100B7000010001000100010001000100010001006D
:100B8000010001000100010001000100010001005D
:100B9000010001000100010001000100010001004D
:100BA000010001000100010001000100010000003E
:100BB000010001000100010001000100010001002D
:100BC000010001000100010001000100010000001E
:100BD000010001000100010001000100010001000D
:100BE00001000100010001000000010001000100FE
:100BF00001000100010001000100010001000100ED
:100C000001000100000001000100010001000100DD
:100C100000000100010000000100000001000000D0
:100C200001000100010001000100010001000100BC
:100C300001000100010001000100010001000100AC
:100C4000010001000100010001000100010001009C
:100C5000010001000100010001000100010001008C
:100C6000010001000100010001000100010000007D
:100C7000010001000100010001000100010001006C
:100C8000010001000100010001000100010000005D
:100C9000010001000100010001000100010001004C
:100CA000010001000100010000000100010001003D
:100CB000010001000100010001000100010001002C
:100CC000010001000000010001000100010001001D
:100CD0000000010001000000010000000100000010
:100CE00001000100010001000100010001000100FC
:100CF00001000100010001000100010001000100EC
:100D000001000100010001000100010001000100DB
:100D100001000100010001000100010001000100CB
:100D200001000100010001000100010001000000BC
:100D300001000100010001000100010001000100AB
:100D4000010001000100010001000100010000009C
:100D5000010001000100010001000100010001008B
:100D6000010001000100010000000100010001007C
:100D7000010001000100010001000100010001006B
:100D8000010001000000010001000100010001005C
:100D9000000001000100000001000000010000004F
:100DA00001000100010001000100010000046801D0
:100DB000F000B40078005A007F3F1F6432146432A0
:100DC00014783C1E1E140A050000000000010101F9
:100DD00001010101010102020202020202020203F8
:100DE00003030303030303040404040404050505C7
:100DF0000505060606060607070707080808080986
:100E000009090A0A0A0A0B0B0B0C0C0C0D0D0D0E2E
:100E10000E0F0F0F101011111112121313141415BD
:100E20001516161717181819191A1A1B1C1C1D1D30
:100E30001E1F1F2020212222232425252627272884
:100E4000292A2B2B2C2D2E2F2F30313233343536AF
:100E5000363738393A3B3C3D3E3F404142434446B9
:100E60004748494A4B4C4D4F50515253555657588D
:100E70005A5B5C5E5F606263646667696A6C6D6E34
:100E8000707173747678797B7C7E808183848688A8
:100E90008A8B8D8F91929496989A9B9D9FA1A3A5E2
:100EA000A7A9ABADAFB1B3B5B7B9BBBDBFC1C4C6E0
:100EB000C8CACCCFD1D3D6D8DADCDFE1E4E6E8EBA0
:100EC000EDF0F2F5F7FAFCFF0403300000000C032C
:100ED0004B00420044003700350000000803640066
:100EE0006F00750000000403090409026D0004018D
:100EF00000A0FA0904000001030101000921110109
:100F000000012240000705810308000A09040100CE
:100F10000103010200092111010001224D00070512
:100F2000820308000A0904020001030000000921ED
:100F3000110100012236000705830308000A090495
:100F40000300010300000009211101000122390002
:100F5000070584032000011201100100000008EDC4
:100F6000FE606001000102030105010906A10105FF
:100F70000719E029E715002501950875018102058B
:100F800008190129059505750191029501750391CF
:100F9000010507190029F71500250195F87501814C
:100FA00002C005010980A101850216010026030087
:100FB0001A81002A8300751095018100C0050C0973
:100FC00001A1018503160100269C021A01002A9C3A
:100FD00002751095018100C005010902A1010901F6
:100FE000A1000509190129051500250195057501BF
:100FF00081029501750381010501093009311581CF
:10100000257F95027508810609381581257F950190
:1010100075088106050C0A38021581257F95017532
:10102000088106C0C005010906A101050719E029CC
:10103000E715002501950875018102950175088164
:10104000010508190129059505750191029501759C
:101050000391010507190029FF150026FF009506D9
:1010600075088100C00011241FBECFEFDAE0DEBF9B
:10107000CDBF04B603FE24C08091B9029091BA029C
:10108000A091BB02B091BC028730904BA740B04BFF
:10109000B9F41092B9021092BA021092BB021092E7
:1010A000BC0214BE84B7877F84BF88E10FB6F89472
:1010B00080936000109260000FBEE0E0F8E30995B5
:1010C00011E0A0E0B1E0E2E0F7E602C005900D9289
:1010D000A034B107D9F722E0A0E4B1E001C01D922D
:1010E000A93BB207E1F70E94572A0C947F330C9476
:1010F000000080E090E008950895089581E008954B
:10110000462F50E04730510508F050C0FA01EA5A26
:10111000FF4FDC0112968C910C941733882309F44D
:1011200045C00E94F31281E00E94DD1240E03AC007
:101130008823E1F10E94F31281E00E94DD1240E079
:1011400061E631C0882391F10E94F31281E00E9490
:10115000DD1240E06FEF27C0882341F10E94F312B7
:1011600081E00E94DD1240E008C08823F9F00E946F
:10117000F31281E00E94DD124FEF6FEF09C0882368
:10118000A9F00E94F31281E00E94DD124FEF60E0AF
:1011900080E00AC0882351F00E94F31281E00E948F
:1011A000DD1240EF60E08FEF0C940111089581FF94
:1011B00002C0229A01C022982A98089581E00895D9
:1011C0000C947E080E94121C2FEF84E39CE02150B7
:1011D00080409040E1F700C000000C943624FF925C
:1011E0000F931F93CF93DF938C01FC01C081D181BA
:1011F00080919E01811113C08281882349F0CE0124
:101200000E946821F82E682FCE010E940E2104C092
:10121000CE010E943C21F82EBE018F2D04C0CE01CC
:101220000E946821BE010E94270CEC01B8010E94B7
:10123000E008882309F490C2B801CE010E94C00ED4
:10124000882309F489C2C93CFCE5DF0741F4F801B1
:101250008281882309F480C20E94BB107DC2CA3CEF
:101260008CE5D80708F037C1C13C9CE5D90761F48B
:10127000F8018281882309F46FC20E943A228272A7
:10128000F1F00E94EA1268C2C23CECE5DE07D0F041
:10129000F8018281C53CFCE5DF0709F4F1C008F0E4
:1012A00001C1C33CECE5DE0709F4F0C008F0F4C06E
:1012B000882309F451C20E943A22827211F30E94DB
:1012C000E0124AC2C531FCE5DF0708F0A4C0C23015
:1012D0008CE5D80708F478C0F8018281882309F4E6
:1012E0007FC00E949C22811102C00E9476220E942F
:1012F000B92290E09093AA028093A902FE01E350E4
:10130000FC45E231F10520F4E35AFF4F0C9417330A
:101310008091A902816003C08091A90282608093BC
:10132000A9024BC08091A9028460F9CF8091A902E3
:1013300013C08091A9028061F2CF8091A9028062DE
:10134000EECF8091A9028064EACF8091A9028068E3
:10135000E6CF8091A90284608860E1CF8091A902E4
:101360008E7FDDCF8091A9028D7FD9CF8091A90298
:101370008B7FD5CF8091A90213C08091A9028F7E67
:10138000CECF8091A9028F7DCACF8091A9028F7B99
:10139000C6CF8091A9028F77C2CF8091A9028B7F9F
:1013A000877FBDCF9091A90297FB882780F921E024
:1013B000822780FB97F99093A9028091A9020E944D
:1013C000BD220E94121CC8C1C1159CE5D90781F03D
:1013D000C130DC45A9F081E080934501809346014E
:1013E000C801DF91CF911F910F91FF900C94DE08FF
:1013F000F8018281882309F4AFC10E94E208ACC1E0
:10140000F8018281882309F4A7C18091400281609C
:1014100080934002A1C1C531FCE5DF0729F50E9498
:101420003A22382FF8012281809102019091030124
:10143000222371F03A7A21E009F420E02093400160
:10144000222311F065E301C069E20E94322309C042
:1014500020914001222311F065E301C069E20E945E
:101460003D230E94072278C1C03CDC4509F0B3CF80
:10147000F8018281882309F46FC10E944B136CC16B
:10148000882309F469C10E94231266C1882309F4E4
:1014900063C10E94EB1160C1882309F45DC10E9401
:1014A00004125AC1C73C9CE5D90731F4882309F4DA
:1014B00053C10E94581250C1C83CDC4530F4882307
:1014C00009F44AC10E943E1247C1882309F444C16D
:1014D0000E94731241C1C13DFCE5DF0749F4F801E8
:1014E0008281882309F438C188E10E94DD1234C169
:1014F000C23D8CE5D80708F087C0F8018281CD3C59
:10150000FCE5DF07A1F4882309F426C10E94AD1091
:10151000663071058105910540F00E94AD1068307C
:1015200071058105910508F4CACE86E0DECFCE3C78
:101530009CE5D90730F5CB3CECE5DE0729F48823A0
:1015400009F40AC181E0D1CFCC3CDC4530F48823DA
:1015500009F402C10E94D010FFC0882309F4FCC026
:101560000E94AD10623071058105910540F00E9426
:10157000AD10653071058105910508F4A0CE82E0BB
:10158000B4CFCF3C9CE5D907A1F4882309F4E4C08B
:101590000E94AD106F3071058105910540F00E94E9
:1015A000AD10643171058105910508F488CE8FE096
:1015B0009CCFC03DDC45A0F4882309F4CDC00E9437
:1015C000AD10693071058105910540F00E94AD10A4
:1015D0006E3071058105910508F471CE89E085CFE3
:1015E000882309F4B9C00E94AD10653171058105E9
:1015F000910540F00E94AD1067317105810591059C
:1016000008F45DCE85E171CFC53DFCE5DF0739F516
:10161000F8018281882361F0109246010E94DB2349
:10162000909344018093430180E20E940B1994C07F
:101630008091460181110FC0809143019091440136
:101640000E94E723883C910530F487E20E94B2179C
:1016500087E20E94AA1880E20E9412197DC0C63D4E
:101660008CE5D80708F043C0F8018281C33DFCE552
:10167000DF0729F4882309F46FC083E236CFC43D25
:10168000DC45A0F4882309F467C00E94AD106931DD
:1016900071058105910540F00E94AD10623271051F
:1016A0008105910508F40BCE89E11FCF882351F005
:1016B000109245010E94DB239093420180934101E7
:1016C00082E0B3CF8091450181110FC0809141012B
:1016D000909142010E94E723883C910530F486E214
:1016E0000E94B21786E20E94AA1882E0B5CFC93DD7
:1016F000ECE5DE0731F4F8018281882369F180E0AE
:1017000009C0CA3DFCE5DF0741F4F8018281882366
:1017100019F182E00E94F32A1FC0C63DDC4509F0A2
:101720005ACEF8018281811177CF809146018111D3
:1017300092CF80914301909144010E94E723883C1D
:10174000910508F088CF80E20E94121988E20E9479
:10175000B21788E20E94AA1880E0DF91CF911F9112
:101760000F91FF9008950C940E0FCF92DF92EF929D
:10177000FF92863030F4811105C0909180009F7DEA
:1017800004C085E090918000906290938000282FA3
:1017900030E0AFEFBFEF0E941D3325E030E040E0C6
:1017A00050E00E94F532C9012C3764E1360728F475
:1017B00069E070E00E94CD3229C0DA01C9018A5087
:1017C000974DAF4FBF4F6627782F892F9A2F25EF60
:1017D00038E241E050E00E94F53269017A01CA0125
:1017E000B9010E94BD329B01AC01C701B6010E9444
:1017F000BD32BB27A92F982F872F009721E0A20782
:10180000B10511F0BC0102C06FEF7FEF70938B0048
:1018100060938A00FF90EF90DF90CF900895269A12
:101820002E9882E28093800089E1809381008FEF7F
:101830009FEF90938700809386000C94DB270E9493
:101840000F0C0C940C0F0C94D7080C94230CE72F5E
:10185000F0E096E0899FE00DF11D112484E0EE0F89
:10186000FF1F8A95E1F7E60FF11DEE0FFF1FE4550C
:10187000FE4F859194910895880F991F82569E4F2F
:10188000FC01859194910895CF93DF930E94270CDA
:101890000E94200EEC01811521E5920708F043C05B
:1018A000811530E5930708F021C1883E910508F5C0
:1018B000803E910508F0C0C1883A910578F4853AD8
:1018C000910508F09EC08130910509F4B5C108F476
:1018D0006CC18430910508F0AFC167C18D3B9105A3
:1018E00008F49AC0803C910508F45FC1805C9109BE
:1018F000ECC0C11580E3D80780F4C11520E2D207FF
:1019000008F0E1C0C03FD10508F44FC1CF3FD10579
:1019100011F008F091C1D0658FC1C11530E4D30733
:1019200008F0E1C0D6C0C11589E5D80740F5C1155A
:1019300028E5D20708F025C1C11534E5D30778F4AE
:10194000C11583E5D80708F002C1C11522E5D20709
:1019500008F0E8C0DC2FCC27C16FD06A6DC1C1157B
:1019600035E5D30708F408C1C11586E5D80708F0A6
:101970001CC1CF71DD27DC2FCC27D0625DC1CB3BF2
:101980002CE5D20709F408C1D8F4C93B8CE5D80787
:1019900009F4FCC008F0FDC0C1153AE5D30708F012
:1019A00004C18C2F8F70806E90E0906A34E0D695E1
:1019B000C7953A95E1F7CF709C013C2BE9013CC1FA
:1019C000CE3B8CE5D80709F4EDC060F4CC3B3CE598
:1019D000D30709F4E4C0CD3BDC4509F0E6C0C0E024
:1019E000D2ED2AC1CE0190568115904208F0DDC09B
:1019F0008D2F8F710E949C0EDD27D0628F71D82BA6
:101A00001BC1853A910509F4D3C0863A910509F4C2
:101A1000D2C0C3E8D0E410C1883A910509F4CEC021
:101A2000893A910509F4CDC08A3A910509F4CCC0F0
:101A30008B3A910509F4CBC08C3A910509F4CAC0E0
:101A40008B3B910509F4C9C08C3B910509F4C8C0D2
:101A50008D3A910509F4C7C0803B910509F4C6C0D1
:101A60008E3A910509F4C5C08F3A910509F4C4C0B6
:101A7000813B910509F4C3C0823B910509F4C2C0C2
:101A8000833B910509F4C1C0843B910509F4C0C0B2
:101A9000853B910509F4BFC0863B910509F4BEC0A2
:101AA000873B910509F4BDC0883B910509F4BCC092
:101AB000893B910509F4BBC08A3B910509F0BAC086
:101AC000CAE2D6E4B9C0CE019F700E943C0CEC0182
:101AD000B3C0CE019927D3FF03C0EC01D86CACC0D2
:101AE000EC01D06CA9C0DF70D06AA6C0282F23708B
:101AF00081E090E002C0880F991F2A95E2F79C6868
:101B00009E01E4E036952795EA95E1F72370922B44
:101B1000CF70C695C69530E2C39FE0011124C82B53
:101B2000D92B8AC08C2F8695869520E2829FC00192
:101B300011249E0123703327C1E0D0E002C0CC0FF6
:101B4000DD1F2A95E2F7C82BD92BDC6875C08C2FD6
:101B50008695869530E2839FC00111249E012370F3
:101B60003327C1E0D0E002C0CC0FDD1F2A95E2F799
:101B7000C82BD92BDA6860C0DC2FCC27C46FD06AA1
:101B80005BC0DC2FCC27C06FD06A56C0C0E0D4ED5C
:101B900053C0C0E0D5ED50C0C0E0D1ED4DC0C0E0B5
:101BA000D0ED4AC0C0E0D3ED47C0C0E0D0E044C0B3
:101BB000C1E8D0E441C0C2E8D0E43EC0C2EED4E403
:101BC0003BC0C9EED4E438C0CAEED4E435C0C5EB9E
:101BD000D4E432C0C6EBD4E42FC0C3EBD4E42CC0B1
:101BE000C4EBD4E429C0C7EBD4E426C0CCECD4E4E5
:101BF00023C0CDECD4E420C0C3E8D5E41DC0CAE8BE
:101C0000D5E41AC0C2E9D5E417C0C4E9D5E414C0CC
:101C1000C1E2D6E411C0C3E2D6E40EC0C4E2D6E409
:101C20000BC0C5E2D6E408C0C6E2D6E405C0C7E2F0
:101C3000D6E402C0C0E0D4E4CE01DF91CF91089594
:101C40008238910549F1B0F48133910509F459C006
:101C500048F48932910509F44FC08A32910509F49C
:101C600055C008958533910509F441C08933910524
:101C700099F00895833E910531F138F4803E910545
:101C800091F0823E9105A9F00895863E910501F1FB
:101C9000873E910539F108952091A90220FD3BC0AE
:101CA00021FD39C008958091A90280FF34C089E3E5
:101CB00041C08091A90282FF32C08091A90284FFB5
:101CC0002CC080E037C08091A90282FD28C0F5CFEA
:101CD0008091A90283FF25C08091A90284FDF1CFE4
:101CE00087EE28C08091A90283FD1BC0F5CF8091AB
:101CF000A90285FF18C019C08091A90285FF15C0EF
:101D000012C08091A90286FF12C013C08091A9025F
:101D100086FF0FC00CC080EE0DC083EE0BC082EEBC
:101D200009C086EE07C085E305C089E203C081E3F0
:101D300001C08AE290E008959091A90292FF0DC03F
:101D4000282F2871283019F4877F846006C0282F37
:101D50002471243011F48B7F886093FF0DC0282FED
:101D60002871283119F4877E846106C0282F2471D8
:101D7000243111F48B7E886194FD877E0895089547
:101D8000CF93DF93EC01FB018281811102C081E0DE
:101D900040C080915401811125C0C631DC45B9F79E
:101DA0000E94BF0E81E0809354010E94DB23909338
:101DB00053018093520110924701109249011092F1
:101DC000480110924B0110924A0110924D0110925D
:101DD0004C0110924F0110924E011092510110923D
:101DE000500116C080915201909153010E94E72347
:101DF0008C32914060F680914701E82FF0E0EE0FC1
:101E0000FF1FE85BFE4FD183C0838F5F8093470144
:101E100080E0DF91CF9108950C947C080C947D08AC
:101E200085B7806885BF85B7806885BFA5E2B1E0CA
:101E300021E030E08D91E82FE295EF70F0E041A1D4
:101E40008F70B90102C0660F771F8A95E2F7CB0148
:101E5000962F9095492341A392A1982B92A371E0CC
:101E6000AB32B70739F7A5E1B1E021E030E08D9161
:101E7000E82FE295EF70F0E041A18F70B90102C048
:101E8000660F771F8A95E2F7CB01962F909549232D
:101E900041A392A1982B92A371E0A532B70739F71D
:101EA000E1E6F1E0A5E5B1E0119211921D921D92DB
:101EB00081E0ED36F807C1F70C941F0C4F925F924A
:101EC0007F928F929F92AF92BF92CF92DF92EF92CA
:101ED000FF920F931F93CF93DF9305E211E0C5E5C7
:101EE000D1E0EE24E394F12C99249394BE01A880D0
:101EF000B98019821882D8012D918D01E22FE295C7
:101F0000EF70F0E081A12F70A70102C0440F551FB0
:101F10002A95E2F79A01842B81A382A1842E8094D2
:101F2000882182A350EA5A95F1F745E1442E41E019
:101F3000542E80E090E0D2014D912D01C42EC29428
:101F40003FE0C322D12CD60190967C90C880D980E6
:101F50004F70D70102C0AA0FBB1F4A95E2F77A2241
:101F600041F4A701082E02C0440F551F0A94E2F75E
:101F700002C040E050E04C295D2959834883019616
:101F800080319105C1F681A1882181A382A1822B94
:101F900082A32296FB0180819181A816B90641F0A7
:101FA00090926D010E94DB2390936F0180936E01EC
:101FB000F1E00B321F0709F099CF80916D01882362
:101FC000B1F080916E0190916F010E94E723069716
:101FD00070F0E5E5F1E0A1E6B1E0819191918D939A
:101FE0009D9341E0E136F407C1F710926D010E9424
:101FF000B30B81E0DF91CF911F910F91FF90EF9094
:10200000DF90CF90BF90AF909F908F907F905F9028
:102010004F900895E82FF0E0EE0FFF1FEF59FE4FAD
:102020008081918108950895DF92EF92FF920F933E
:102030001F93CF93DF93493C08F048EC662309F4E3
:102040004AC0C42FD0E0AFEFB0E0A61BB109BE017B
:10205000A69FE001A79FD00DB69FD00D1124FD2FA4
:10206000DD2E7B01ED1AF1080CE310E0B8010E94AF
:10207000CD32EB01BC01E69EC001E79E900DF69EBD
:10208000900D1124B8010E94CD32C230D105B1F0BB
:1020900040F4209779F0219709F58F2FD42E461B15
:1020A00020C0C430D10599F068F02597B9F4842F89
:1020B000861B17C08F2FD62EDF0E13C0862F8F0FD3
:1020C000D42E03C0D42ED61A842F4F2F0AC0842FAB
:1020D000462F4F0F06C0842FD42E03C080E0D12C92
:1020E00040E0E42FF0E0E853F24F4491ED2DF0E0B2
:1020F000E853F24F9491E82FF0E0E853F24FE49167
:10210000D90111964C9311979C931296EC93DF9101
:10211000CF911F910F91FF90EF90DF90089588E08D
:1021200090E00C943F33AB01BC0188E090E00C944C
:102130005D33EEE6F2E083E0808310926F028FEF72
:102140008093700288EC8093710210927202608119
:102150007181828193810C94931060916E0260FF73
:1021600006C066956F7370E080E090E0089560E0CF
:1021700070E0CB0108958091720290E00196843066
:10218000910514F083E090E08093720260916E02FA
:1021900070916F0280917002909171020C94931073
:1021A0008091720290E0019797FF02C080E090E07A
:1021B0008430910514F083E090E080937202609186
:1021C0006E0270916F0280917002909171020C9476
:1021D000931080916E0280FF06C060E170E083E79B
:1021E00092E00C945B16E5E7F2E0DF0111971C9298
:1021F00011971C921082339682E0E53AF807A9F70E
:10220000ECCF90916E0290FF0FC0E5E7F2E0DF01A6
:1022100011978C9311976C934083339692E0E53A33
:10222000F907A9F70C94E9100895CF93DF9300D034
:102230001F92CDB7DEB720916E0220FF0AC09E012B
:102240002F5F3F4F0E9414104B8169818A810E9449
:1022500001110F900F900F90DF91CF9108955F9231
:102260006F927F928F929F92AF92BF92CF92DF92A6
:10227000EF92FF920F931F93CF93DF9300D01F92A3
:10228000CDB7DEB78C01662E742E522E80916E0271
:1022900080FF8BC0982F9E77923061F49E012F5F54
:1022A0003F4FC8010E9414104B8169818A810E94AE
:1022B00001115BC0E82FE695EF739EE39E0F9F73BD
:1022C000943018F47090710250C09AE39E0F9F737F
:1022D000993068F4881F8827881F90916F02292FF2
:1022E000220F022F082B97FB112710F93EC087E21F
:1022F0008E0F8F738A30C8F5F0E07997E0FF02C047
:102300004FEF01C041E0EE7FE255F24F859194918D
:102310009C0184E0369527958A95E1F742035001A8
:10232000439FB00C1124680188E9C81A8EEFD80ABF
:1023300093E7E92E92E0F92E28E6822E99249394D1
:10234000C601B4010E94CD329701472D662D0E942F
:102350001410CA0CDB1C83E0E80EF11C83EAE816BB
:1023600082E0F80669F70E94E91080916E0200FB96
:1023700087F980936E02902F969580916F028078F6
:10238000892B10FB87F980936F0260927002709224
:102390007102552051F060916E0270916F02809130
:1023A0007002909171020E9493100F900F900F9005
:1023B000DF91CF911F910F91FF90EF90DF90CF9021
:1023C000BF90AF909F908F907F906F905F90089597
:1023D00021E00C942F1120916E02221F2227221F30
:1023E00030916F02432F440F842F822B37FB9927A4
:1023F00090F9089668E671E00E94E132409171021E
:10240000609170020C94E81120916E02221F222725
:10241000221F30916F02432F440F842F822B37FBF2
:10242000992790F9883091051CF4805A9E4F01C07D
:10243000089768E671E00E94E13240917102609174
:1024400070020C94E81160917002862F90E0883F32
:10245000910514F4685F01C06FEF80916E02881FD0
:102460008827881F90916F02292F220F97FB9927A9
:1024700090F940917102822B0C94E81160917002E6
:10248000862F90E0089714F0685001C060E08091BA
:102490006E02881F8827881F90916F02292F220FB4
:1024A00097FB992790F940917102822B0C94E811C7
:1024B00040917102842F90E0813C910514F4485FB3
:1024C00001C048EC80916E02881F8827881F909178
:1024D0006F02292F220F97FB992790F960917002C4
:1024E000822B0C94E81140917102842F90E00897A0
:1024F00014F0485001C040E080916E02881F882788
:10250000881F90916F02292F220F97FB992790F92E
:1025100060917002822B0C94E81120E00C942F1132
:1025200090916E0290FF48C09178811102C0926034
:1025300003C0843220F0966490936E0205C08F73BE
:10254000880F892B80936E02662351F060916E0292
:1025500070916F0280917002909171020E949310AD
:1025600080916E02382F3E77323019F41092890133
:1025700012C0982F96959F732EE3290F2F73273142
:1025800010F0363421F491E09093890104C0995DF4
:102590009F739A3058F3881F8827881F90916F0285
:1025A000292F220F97FB992790F940917102609192
:1025B0007002822B0C948D12089561E00C9490129D
:1025C00080916E0286958F738F5F843208F081E070
:1025D0000C94DD1280916E0286958F73815009F400
:1025E00083E20C94DD12EEE6F2E08081816080836C
:1025F00086958F730C94DD1260E00C94901280919C
:10260000400281608093400281E080938A010E94B1
:102610009C22811104C00E9476220E9499100E947F
:102620008F1060936E0270936F028093700290938C
:1026300071026E7761F40E9499100E948F1060936E
:102640006E0270936F02809370029093710281E02A
:102650008093890180916E0280FF04C086958F73FC
:102660000C94FC120895EEE6F2E080818E7F808368
:1026700060817181828193810E94931010928901FF
:102680002FEF80E792E0215080409040E1F700C0BA
:1026900000000C94E91080916E0280FD0C943313BD
:1026A0000C94F312CF93C82F8091870190918801E9
:1026B0000E94E723EC2FF0E0EC53F24FE491F0E0BE
:1026C0008E179F0708F442C00E94DB239093880175
:1026D000809387016091860170E080E090E00E9425
:1026E000DB3020E030E04FE753E40E9414302BED64
:1026F0003FE049E450E40E94FC310E945F320E94B6
:1027000081302BE43AE34EE25FE30E94AF2F20EFEB
:102710003BEF48ED52E40E94FC310E94AD30462F61
:1027200080916E02881F8827881F90916F02292F41
:10273000220F97FB992790F960917002822B0E94DB
:102740001511809186018F5F80938601CF91089546
:10275000CF93C82F80918401909185010E94E72337
:10276000EC2FF0E0EF53F24FE491F0E08E179F076B
:10277000E8F00E94DB2390938501809384014091CF
:1027800071026091700280918201909183010E9498
:1027900015118091820190918301019668E671E0A4
:1027A0000E94CD329093830180938201CF9108954E
:1027B000DF92EF92FF920F931F93CF93DF93D82E68
:1027C00080918001909181010E94E723ED2DE69593
:1027D000F0E0E254F24FE491F0E08E179F07F0F141
:1027E0000E94DB23909381018093800103E712E034
:1027F000C0E0D0E068E6E62EFF24F39480917E01ED
:1028000090917F018C0F9D1FB7010E94CD329801DE
:1028100040917102609170020E94141066960D5FE3
:102820001F4FC03681E0D80749F70E94E910209178
:102830007E0130917F01D0FE0BC0C901019668E690
:1028400071E00E94CD3290937F0180937E0106C09B
:102850002150310930937F0120937E01DF91CF9188
:102860001F910F91FF90EF90DF900895AF92BF926C
:10287000CF92DF92EF92FF920F931F93CF93DF934C
:10288000C82F80FD03C0BB24B39402C0BB24BA94FC
:1028900080917C0190917D010E94E723C695EC2FE9
:1028A000F0E0E554F24FE491F0E08E179F0708F452
:1028B00065C00E94DB2390937D0180937C01F3E748
:1028C000EF2EF2E0FF2E05E712E0C0E0D0E0F801C5
:1028D00031971082F7011082F8011082E4E0CE2EC9
:1028E000D12CA12C80917B018A0D87FD805F9927D7
:1028F00087FD9095C817D907E9F4809171028C9DE6
:10290000A0018D9D500D11245595479555954795DE
:1029100080916E02881F8827881F90916F02592F1F
:10292000550F97FB992790F9970160917002852BBD
:102930000E941410AB0CF1E0CF1AD108C114D104DD
:1029400089F6219683E0E80EF11C0D5F1F4FC03120
:10295000D10509F0BCCF0E94E91080917B0191E084
:10296000B91206C0811102C08FE006C0815004C0B8
:1029700090E001968F70992780937B01DF91CF9132
:102980001F910F91FF90EF90DF90CF90BF90AF908D
:102990000895EF92FF920F931F93CF93DF93C82F69
:1029A0008091790190917A010E94E723EC2FF0E069
:1029B000E854F24FE491F0E08E179F0708F465C0E9
:1029C0000E94DB2390937A0180937901E5E7F2E09E
:1029D000DF0111971C9211971C921082339682E0AE
:1029E000E53AF807A9F705E712E0A3E7EA2EA2E027
:1029F000FA2EC0E0D0E080917801992787FD90956C
:102A0000C817D907ECF080910101992787FD9095AF
:102A10008C179D07ACF080916E02881F8827881F55
:102A200090916F02592F550F97FB992790F99701B5
:102A30004091710260917002852B0E94141007C0B2
:102A4000F80131971082F7011082F8011082219667
:102A5000F3E0EF0EF11C0D5F1F4FC031D10559F6A9
:102A60000E94E9102091000180917801820F8093EB
:102A7000780190910101920F90930101191614F4BD
:102A80008F301CF0219520930001DF91CF911F9191
:102A90000F91FF90EF900895EF92FF920F931F9385
:102AA000CF93DF9380917601909177010E94E72385
:102AB000883E9340C8F10E94DB2390937701809376
:102AC0007601C0917401D09175012196C170DD2706
:102AD000D0937501C093740103E712E0F12CB8E7BD
:102AE000EB2E8F2D8695FE01E80FF11DCF01817031
:102AF000992798014091710260917002FC01EE9E4D
:102B0000C001EF9E900D11240E941410F3940D5FEC
:102B10001F4FF0E1FF12E5CFDF91CF911F910F9191
:102B2000FF90EF900C94E910DF91CF911F910F91DE
:102B3000FF90EF900895CF93DF9300D01F92CDB711
:102B4000DEB780917201909173010E94E723ECEA55
:102B5000FDE02591349182179307C0F180917101B6
:102B600081110CC09E012F5F3F4F48EC6FEF80E05A
:102B700090E00E9414108A81809371010E94DB23EF
:102B8000909373018093720180917001813051F0B4
:102B900028F0823061F4409171010AC08091710186
:102BA00040E007C06091710140E080E003C040E078
:102BB00080E060E00E9401118091700190E0019638
:102BC00063E070E00E94E132809370010F900F90FB
:102BD0000F90DF91CF910895809189018823B9F1F9
:102BE00020916E02822F86958F739EE3980F9F73BC
:102BF000943018F482500C9452139AE3980F9F73F8
:102C0000933018F486500C94A81397E3980F9F7391
:102C1000963018F489500C94D81391E3980F9F7351
:102C2000963018F48F500C9436149BE2980F9F73D3
:102C3000933018F485510C94C914822F8E77803309
:102C400011F40C944C15863411F40C949B150895D2
:102C50003EB1242F209523233EB1342B4FB7F89457
:102C6000FC01680F791FE617F70789F0819198E05A
:102C70003EB9000000C087FF2EB9880F000000C0D9
:102C800000C000C02EB900C09A9591F7ECCF4FBF9D
:102C900008952DB1242B2DB99B01220F331F260F30
:102CA000371FB9010E94281687EC90E00197F1F7D1
:102CB00000C00000089544E00C94491690939001E0
:102CC00080938F010895E0918F01F09190013097EA
:102CD00021F00190F081E02D099480E00895E091C9
:102CE0008F01F0919001309721F00280F381E02D67
:102CF00009940895E0918F01F0919001309721F0AF
:102D00000480F581E02D0994089520918D01309182
:102D10008E018217930771F090938E0180938D013D
:102D2000E0918F01F0919001309721F00680F781BA
:102D3000E02D0994089520918B0130918C01821728
:102D4000930771F090938C0180938B01E0918F0138
:102D5000F0919001309721F00084F185E02D0994E5
:102D6000089508950C94B11681E008950E94D2232D
:102D70000E94100F0E94A6240E94DB270C94FF12D1
:102D80005F926F927F928F929F92AF92BF92CF92FB
:102D9000DF92EF92FF920F931F93CF93DF93CDB704
:102DA000DEB72A970FB6F894DEBF0FBECDBF0E94E4
:102DB0005E0F0E94B416811111C08FEF89838A8340
:102DC0001B820E94DB238160782F9D838C83498145
:102DD0005A816B818D810E947E1757C092E9C92E5E
:102DE00091E0D92E00E010E0AA24A394B12C502E3B
:102DF000802F0E940A103C01F601E190F1906F01D2
:102E0000E826F926E114F10431F40F5F1F4F063074
:102E1000110569F7D2CF8091400281FD0E94131005
:102E200020E030E04501022E02C0880C991C0A9473
:102E3000E2F7C4018E219F21892B09F12E835F8245
:102E40006820792081E0672809F480E088870E9463
:102E5000DB238160782F9A8789874E815F8168851F
:102E60008A850E947E17F801EE0FFF1FEE56FE4F77
:102E700080819181882599259183808306C02F5F69
:102E80003F4F2031310571F6C0CF0E944627109187
:102E900091010E9463161817D9F00E94631680935F
:102EA00091012A960FB6F894DEBF0FBECDBFDF9119
:102EB000CF911F910F91FF90EF90DF90CF90BF9037
:102EC000AF909F908F907F906F905F900C94250CA7
:102ED0002A960FB6F894DEBF0FBECDBFDF91CF911B
:102EE0001F910F91FF90EF90DF90CF90BF90AF9028
:102EF0009F908F907F906F905F900895CF93DF9316
:102F0000CDB7DEB72B970FB6F894DEBF0FBECDBF9F
:102F10004F83588769877A878B87DE01119686E011
:102F2000FD0111928A95E9F785E0FE01379601903F
:102F30000D928A95E1F749815A816B817C818D815F
:102F40009E810E94EC1E2B960FB6F894DEBF0FBE3A
:102F5000CDBFDF91CF910895FC01808191810E94C6
:102F6000A8210895882309F4F4C08238C1F40E948E
:102F7000631681FDEEC069E3809102019091030127
:102F80000E9432230E9407222FEF81EE94E021500D
:102F900080409040E1F700C0000069E319C0833829
:102FA000F9F40E94631680FDD4C063E580910201AC
:102FB000909103010E9432230E9407222FEF81EE9D
:102FC00094E0215080409040E1F700C0000063E5AC
:102FD00080910201909103010E943D230C940722ED
:102FE0008438C1F40E94631682FDB3C067E4809107
:102FF0000201909103010E9432230E9407222FEFC9
:1030000081EE94E0215080409040E1F700C0000044
:1030100067E4DECF9CEF980F913A40F4682F8091DF
:103020000201909103010E943223D8CF90E2980FC1
:10303000983050F4877091E001C0990F8A95EAF7B3
:10304000892F0E943D22CACF9BE5980F933070F4E0
:10305000853A29F0863A31F482E890E005C081E8AB
:1030600090E002C083E890E00C94851698E5980FF4
:10307000953108F06EC0883A61F1893A69F18A3A6F
:1030800071F18B3A79F18C3A81F18B3B89F18C3B70
:1030900091F18D3A99F1803BA1F18E3AA9F18F3AE5
:1030A000B1F1813BB9F1823BC1F1833BC9F1843B72
:1030B000D1F1853BD9F1863BE1F1873BE9F1883BD2
:1030C000F1F1893BF9F18A3B09F03FC08AE292E0D5
:1030D0003EC082EE90E03BC089EE90E038C08AEEC0
:1030E00090E035C085EB90E032C086EB90E02FC0D9
:1030F00083EB90E02CC084EB90E029C087EB90E05C
:1031000026C08CEC90E023C08DEC90E020C083E8DA
:1031100091E01DC08AE891E01AC082E991E017C0F1
:1031200084E991E014C081E292E011C083E292E070
:103130000EC084E292E00BC085E292E008C086E215
:1031400092E005C087E292E002C080E090E00C943B
:103150009B160895882309F45DC0823879F40E9493
:10316000631681FF57C069E38091020190910301CA
:103170000E9432230E94072269E310C08338B1F411
:103180000E94631680FF46C063E580910201909122
:1031900003010E9432230E94072263E5809102010D
:1031A000909103010E943D230C940722843879F406
:1031B0000E94631682FF2EC067E480910201909105
:1031C00003010E9432230E94072267E4E7CF9CEFAD
:1031D000980F913A10F4682FE1CF90E2980F983051
:1031E00050F4877091E001C0990F8A95EAF7892F12
:1031F0000E944322D9CF9BE5980F933020F480E0C2
:1032000090E00C948516885A853120F480E090E097
:103210000C949B160895882321F00E943D220C9463
:1032200007220895882321F00E9443220C9407224C
:1032300008958F929F92BF92CF92DF92EF92FF926A
:103240000F931F93CF93DF9300D0CDB7DEB74C0120
:10325000472FFC01C580C2949FE0C922D280DD20A7
:1032600031F079836A830E945A226A8149814983B5
:103270006A830E94002249816A81882389F0DD20C7
:1032800079F080E2860F883058F082E00E94E921D0
:103290000E940022BB24B394B82649816A8101C0F0
:1032A000B12CE42EE2948FE0E822F12CF701E159F1
:1032B000FF4F0C941733842F807F142F1F708823A7
:1032C00011F01295107FDD20C1F0112309F4E1C146
:1032D00080E2860F883010F0611105C0812F6A836B
:1032E0000E943D2204C0812F6A830E944D226A8180
:1032F0006A830E9407226A81CCC1862F6A830E945A
:10330000AA186A81112309F40BC280E2860F883063
:1033100010F0611104C0812F0E94432203C0812F4D
:103320000E9453220E940722FBC1842F807F142F0A
:103330001F70803211F01295107F662319F06130F2
:10334000D9F026C0DD2079F0CC2049F0F1E0CF1291
:1033500006C00E947322812B0E946D22E1C10E944F
:103360007322812B4AC1CC2021F021E0C21609F43E
:10337000D7C10E94702246C1DD2029F085E08C155E
:1033800008F4CEC139C194E09C1508F4C9C13AC112
:10339000DD2051F0CC2009F42FC1F401858180FF9C
:1033A00078C18F70858328C1CC2009F42BC182C1DC
:1033B000242F26952695237030E02115310521F024
:1033C0002130310561F0ACC1DD2021F0862F942F32
:1033D000937002C080E090E00E948516B1C1DD20AC
:1033E00021F0862F942F937002C080E090E00E941D
:1033F0009B16A6C1DD20F9F0653F51F0663F71F0E4
:10340000643FA9F48091A3029091A40281600BC053
:103410008091A3029091A402826005C08091A302D2
:103420009091A40284609093A4028093A302862FBB
:103430000E944E2622C0653F51F0663F91F0643FE6
:10344000C9F48091A3029091A4028E7F05C080915F
:10345000A3029091A4028D7F9093A4028093A30273
:1034600009C02091A3023091A4022B7F3093A402C3
:103470002093A302862F0E94B6260E943B2760C19C
:10348000842F837009F04EC0D11056C1262F22958B
:1034900026952770220F220F862F8F70C82ED12CD1
:1034A000E12CF12C022E04C0CC0CDD1CEE1CFF1C08
:1034B0000A94D2F764FF10C06FE070E080E090E003
:1034C00004C0660F771F881F991F2A95D2F7609551
:1034D00070958095909503C060E070E0CB01242F3B
:1034E00026952695237030E02230310569F023308F
:1034F000310589F06C297D298E299F2921303105DC
:1035000071F00E943B2018C16C297D298E299F29CA
:103510000E944D2011C10E943B20C701B6010E94AC
:1035200029200AC1DD2019F0842F817001C0869501
:10353000882309F401C1262F229526952770220F92
:10354000220F862F8F70C82ED12CE12CF12C022E49
:1035500004C0CC0CDD1CEE1CFF1C0A94D2F764FFE7
:1035600010C06FE070E080E090E004C0660F771F4D
:10357000881F991F2A95D2F7609570958095909530
:1035800003C060E070E0CB01242F269526952370C0
:1035900030E02230310569F02330310589F06C29A3
:1035A0007D298E299F292130310571F00E94E92063
:1035B000C3C06C297D298E299F290E94FB20BCC095
:1035C0000E94E920C701B6010E94D720B5C0062F8E
:1035D00010E0F801E05EF109E531F10508F055C0B1
:1035E000E158FF4F0C941733162F1F70842F8F71E3
:1035F000DD2031F00E948220812F0E940B1990C0A3
:103600000E949D20812F0E9412198AC0DD2049F05E
:10361000F4E0FC1508F484C0842F8F710E94BC2054
:103620007FC025E02C1508F47BC0F6CFDD2039F0F3
:10363000842F8F710E94822073C0DD20C9F3842FF4
:103640008F710E949D206CC0DD2029F0842F8F7126
:103650000E94732065C00E946E2062C0DD2051F080
:10366000142F1F71812F0E94822063E0812F0E94FE
:10367000E02156C081E00E94E92181E08C1508F02C
:103680004FC082E00E94E9214BC0DD2031F0CC2008
:1036900079F2862F0E94B21743C0CC2081F26933A1
:1036A00049F49FEFE7EEF3E09150E040F040E1F79E
:1036B00000C00000862F0E94AA1832C04F70C401BB
:1036C0000E9479080E94991F3BC0D11039C0942FE5
:1036D0009F70892F90E08230910599F03CF400971B
:1036E00069F00197E9F40E9414282AC084309105FA
:1036F00071F054F00597A1F480E00AC00E94F82709
:103700001FC00E9430281CC00E944A2819C085E0B2
:103710000E946F2815C04F70C4010E94800810C01D
:1037200028E0E216F10441F05CF09AE0E91AF108B1
:10373000E2E0EE16F10420F40E9463160E94250CCC
:10374000BB20F1F00E94DC2180FD1AC0F40112823E
:103750000E94D6210E948220C4010E94CE1B0E949A
:10376000D6210F900F90DF91CF911F910F91FF9075
:10377000EF90DF90CF90BF909F908F900C949D2002
:103780000F900F90DF91CF911F910F91FF90EF90CD
:10379000DF90CF90BF909F908F9008950F931F93CD
:1037A000CF93DF93EC01288139818B819C81892B18
:1037B00031F03F3F11F080E003C02F3FE1F781E09F
:1037C000811113C0CE010E94EF08882371F0688137
:1037D00079818A810E94B3218C010E940D210E946F
:1037E0002620B801CE010E941919DF91CF911F91B7
:1037F0000F9108950E945A220E946A22809102012C
:10380000909103010E9448230E9407220E94CF2723
:103810000E943B2780E090E00E94851680E090E0C7
:103820000C949B160E944A220C94FA1B0E94A82119
:10383000E92FE295EF70F0E03297EE30F105B8F441
:10384000EC56FF4F0C941733803F59F018F4803E2C
:1038500070F407C0843F59F404C0803E10F0813FEB
:1038600031F481E0089593FB882780F9089580E082
:103870000895CF93DF9300D000D01F92CDB7DEB76D
:103880000F900F900F900F900F90DF91CF910895B0
:10389000CF93DF9300D000D000D0CDB7DEB726960F
:1038A0000FB6F894DEBF0FBECDBFDF91CF91089564
:1038B0001F93CF93DF93C0919F0116E08091A001E9
:1038C000C81799F0D0E01C9FF0011D9FF00D112446
:1038D000EF55FE4F408151816281738184819581D2
:1038E0000E94481C2196C770E9CFDF91CF911F91AC
:1038F00008954091D1015091D2016091D30170910E
:10390000D4018091D5019091D6010C94481CCF939D
:103910008091D60182958F7009F05FC08091D301AC
:10392000882309F45AC020919F01A091A0016091C1
:10393000D1017091D2018091D4019091D50131E0F3
:103940006F3F09F030E0B32FC6E02A1709F445C0F5
:10395000009721F07F3F21F44B2F03C041E001C0CD
:1039600040E030E040FD35C0C29FF001C39FF00D44
:103970001124EF55FE4F418174132BC04081641315
:1039800028C04281411125C04381548148175907FD
:1039900010F441505109481B590B483C5105C8F4DB
:1039A0008091D6018F7080618093D60186E0829FDE
:1039B000F001839FF00D1124EA55FE4F80818F7036
:1039C0008061808381ED91E00E94CE1BCF910C94A9
:1039D000581C2F5F3F4F2770B8CFCF910895CF92DB
:1039E000DF92EF92FF920F931F93CF93DF93CDB7A8
:1039F000DEB762970FB6F894DEBF0FBECDBF8C0165
:103A000085E0F801DE011D9601900D928A95E1F79F
:103A1000D8014C9111965C91119712966C91129766
:103A20001396ED90FC9014977091D101E091D20122
:103A30002091D4013091D5012115310531F0EF3FAE
:103A400031F481E07F3F19F403C081E001C080E0E0
:103A5000B82FB170CB2E80FD6BC1D090D301DD208B
:103A600009F4F5C0F091D601E216F30638F0C7016B
:103A7000821B930B883C910548F09DC020953095A2
:103A80002E0D3F1D283C310508F095C08F2F807FFB
:103A900009F052C0E51314C0741312C0D62E611180
:103AA0000FC0FF70F061F093D6010E94791C81ED88
:103AB00091E00E94CE1B8091D601F80185837CC1E4
:103AC000EF2831F05F3F31F481E04F3F19F403C03C
:103AD00081E001C080E080FD03C081E0862701C055
:103AE00080E0F82FF170FF2E80FF1CC080919F01B5
:103AF0002091A00136E0821709F438C190E0389F88
:103B0000F001399FF00D1124EF55FE4F71815713CD
:103B100006C07081471303C07281671303C001960A
:103B20008770E9CFD62E662309F446C18091D6016D
:103B300081608093D60155C0E51308C0741306C098
:103B4000611104C0D8011596FC93AEC04D875E8705
:103B50008D859E856A8B0E94161C6A89882329F1AF
:103B6000D62E662311F12091D601822F82958F7077
:103B700090E002970CF462C08091D1019091D20143
:103B800098878F831986FB86EA862C87CE01079655
:103B900053C0E51741F14D875E878D859E856A8B01
:103BA0000E94161C6A89811130C0C8010E94CE1B78
:103BB000DD24D39401C18F2F807F59F77E2DF98AA0
:103BC000E88A89890E94391C81ED91E00E94CE1B10
:103BD000E1EDF1E086E0DF011D928A95E9F70E94B0
:103BE000791CD12CE9C07413D6CF6111D4CFD80180
:103BF0001596FC93C8010E94CE1BE1EDF1E086E032
:103C0000DF011D928A95E9F7D7C0D62E662369F2A7
:103C10002091D601822F82958F7090E0029774F0E8
:103C20008091D1019091D2019A8389831B82FD8278
:103C3000EC822E83CE0101960E94CE1B86E0F80115
:103C4000A1EDB1E001900D928A95E1F78AC0E216EC
:103C5000F30628F0C701821B930B9C0104C020953A
:103C600030952E0D3F1D283C310508F053C0D62E4F
:103C7000662309F49ACFE5132CC074132AC08091EF
:103C8000D60180FD1DC0982F92959F70C9F0D80174
:103C900015968C9315979F3039F09F5F9295907F82
:103CA0008F70892B15968C93C8010E94CE1B86E0DD
:103CB000F801A1EDB1E001900D928A95E1F753C0B2
:103CC00086E0F801A1EDB1E001900D928A95E1F74F
:103CD00073C04D875E878D859E850E94161C882344
:103CE00081F096E0F801A1EDB1E001900D929A9576
:103CF000E1F78A8B0E94871C0E94791C8A89D82E42
:103D00005BC08091D60181608093D601C8010E947A
:103D1000CE1B52C07E2DF98AE88A89890E94391CFF
:103D2000E1EDF1E086E0DF011D928A95E9F71BC025
:103D3000662309F43ACF4D875E878D859E850E9464
:103D4000161CD82E882309F430CF86E0F801A1EDA7
:103D5000B1E001900D928A95E1F781ED91E00E942A
:103D6000AC170E94871C0E94791C26C04D875E8775
:103D70008D859E850E94A821292F22952F7030E0E5
:103D8000223031052CF49F7041F0811106C00CC027
:103D9000243031052CF49F7049F4805E883020F087
:103DA000C8010E94CE1BCF2CDC2C06C0D801159672
:103DB0009C91907F91F7F8CF8D2D62960FB6F89475
:103DC000DEBF0FBECDBFDF91CF911F910F91FF904E
:103DD000EF90DF90CF9008951F93CF93DF93CDB7EF
:103DE000DEB72C970FB6F894DEBF0FBECDBF4F8362
:103DF000588769877A878B879C87CE0107960E94B0
:103E0000EF1C8823C1F02F8138858A859B85892BFB
:103E100031F03F3F11F080E003C02F3FE1F781E038
:103E2000811147C04F81588569857A858B859C852E
:103E30000E94481C3EC086E0FE013796DE011196C6
:103E400001900D928A95E1F7FF81E8854A855B85AF
:103E50004115510531F0EF3F31F481E0FF3F19F496
:103E600003C081E001C080E080FD23C02091A0015B
:103E700030E0C90101968770992760919F0170E039
:103E800086179707F1F1F983EA835D834C8396E007
:103E9000929FD001939FB00D1124AF55BE4FFE01EC
:103EA000319601900D929A95E1F78093A0010E94BE
:103EB000581C16E080919F019091A001891779F11B
:103EC000189FC00111248F559E4F0E94EF1C88231C
:103ED00031F1E0919F011E9FF0011124EF55FE4F3B
:103EE0004081518162817381848195810E94481C47
:103EF00080919F0190E001968770992780939F01A0
:103F0000D9CF0E94121C1092A00110929F01E1EDE6
:103F1000F1E086E0DF011D928A95E9F7CACF2C9681
:103F20000FB6F894DEBF0FBECDBFDF91CF911F91CA
:103F30000895EF92FF920F931F93CF93DF93FC01AD
:103F4000009709F46FC0F12CEE24E394EF01219661
:103F50008491843740F4843008F055C0813081F07A
:103F6000823021F15FC0853709F447C0C0F19CE77A
:103F7000980F903708F056C08F770E94AA1845C056
:103F80008F010E5F1F4FFE01849190E2980F9830D1
:103F900050F48770FE2D01C0FF0F8A95EAF78F2F2E
:103FA0000E945D2215C00E94B21714C08F010E5FDF
:103FB0001F4FFE01849190E2980F983068F487704B
:103FC000FE2D01C0FF0F8A95EAF78F2F0E94632212
:103FD0000E940722E80119C00E94AA18FBCFCF0156
:103FE0000296FE01C491CC2361F0EFE9FFE0319726
:103FF000F1F700C00000C150F6CFCF010296FE01DC
:10400000F490EC0102C00E94B2178F2D882341F07A
:10401000EFE9FFE03197F1F700C000008150F6CFE3
:10402000FE0194CFDF91CF911F910F91FF90EF9000
:10403000089508950E941920609317027093180242
:104040008093190290931A020C94FA1B08950C9411
:104050001A200F931F9300911702109118022091BC
:10406000190230911A02602B712B822B932B1F9116
:104070000F910C941A200F931F9300911702109127
:1040800018022091190230911A02602371238223B1
:1040900093231F910F910C941A200F931F9300915B
:1040A0001702109118022091190230911A0260270C
:1040B0007127822793271F910F910C941A2008953E
:1040C0000C945F200E94602060931302709314028E
:1040D00080931502909316020C94FA1B60E070E036
:1040E000CB010C94622041E050E060E070E004C03D
:1040F000440F551F661F771F8A95D2F7CB01BA016F
:104100000C94622041E050E060E070E004C0440F95
:10411000551F661F771F8A95D2F7809113029091E1
:104120001402A0911502B0911602482B592B6A2B4C
:104130007B2BCB01BA010C94622041E050E060E09F
:1041400070E004C0440F551F661F771F8A95D2F791
:10415000409550956095709580911302909114024E
:10416000A0911502B0911602482359236A237B239C
:10417000CB01BA010C94622041E050E060E070E0B5
:1041800004C0440F551F661F771F8A95D2F7809190
:10419000130290911402A0911502B09116024827C3
:1041A00059276A277B27CB01BA010C9462200F9311
:1041B0001F93009113021091140220911502309167
:1041C0001602602B712B822B932B1F910F910C9455
:1041D00062200F931F9300911302109114022091FB
:1041E00015023091160260237123822393231F91BD
:1041F0000F910C9462200F931F9300911302109162
:10420000140220911502309116026027712782272F
:1042100093271F910F910C946220089520E1929FA3
:10422000800D1124482F4695469546958770B1E03C
:1042300001C0BB0F8A95EAF785E0489FA0011124D1
:1042400049525E4F80E090E070E0FA01E80FF91FFC
:10425000A0819B01082E02C0369527950A94E2F7AB
:104260002170332721952A272B232A272083019683
:104270008530910551F7089520E1929F800D11241A
:10428000682F669566956695982F977085E0689F6C
:10429000B001112469527E4F40E050E080E0FB0104
:1042A000E40FF51F208130E0092E02C036952795D6
:1042B0000A94E2F721703327042E01C0220F0A94DA
:1042C000EAF7822B4F5F5F4F4530510541F7089564
:1042D000CF92DF92EF92FF920F931F93CF93DF93D2
:1042E000EC01C0901702D0901802E0901902F090F3
:1042F0001A028091130290911402A0911502B091BC
:104300001602C82AD92AEA2AFB2A0FE110E0B701CF
:10431000A601002E04C076956795579547950A9497
:10432000D2F740FD05C00150110988F780E007C0B1
:10433000BE01802F0E94440C0197A9F3802FDF91CA
:10434000CF911F910F91FF90EF90DF90CF90089544
:10435000CF93DF93EC010E946821BE010E94440CC0
:10436000DF91CF9108951F93CF93DF93EB0190914D
:104370009E01992321F0CB010E94A82113C088231C
:1043800049F0CB010E946821182F682FCE010E94AE
:104390000E2104C0CB010E943C21182FBE01812FA9
:1043A0000E94440CDF91CF911F91089580911B02D0
:1043B000859585958595089580911B028770089550
:1043C00098E0899F90011124622B60931B020C944A
:1043D000822040911B028095842380931B02982F9A
:1043E000977069F450E0282F332727FD3095421746
:1043F000530729F08595859585950C949D20089502
:1044000090911B02977081E009F480E00895E0919B
:104410000201F091030180913F028083E09102014B
:10442000F0910301808190913E02892B8083E0917D
:104430000201F0910301808190913D02892B8083DC
:1044400090911C02992381F0E0910201F091030107
:104450008081892B808380910201909103010E94C9
:10446000CB22811110921C028091020190910301D4
:104470000C946F1680913F02089590913F02982B03
:1044800090933F020895809590913F0298239093D6
:104490003F02089510923F02089590913E02982B9A
:1044A00090933E020895809590913E0298239093B8
:1044B0003E02089510923E02089590913D02982B7D
:1044C00090933D020895809590913D02982390939A
:1044D0003D02089510923D02089580931C020895B4
:1044E00010921C02089580911C0208956DEE7EEFDB
:1044F00080E090E00E94693360E082E090E00E94FA
:104500004B3360E083E090E00E944B3360E084E056
:1045100090E00E944B3360E085E090E00E944B33D6
:1045200060E086E090E00E944B3340E050E0BA014A
:1045300088E090E00C945D3380E090E00E94453389
:1045400021E08D3E9E4F09F020E0822F089582E009
:1045500090E00C943733682F82E090E00C944B335A
:1045600083E090E00C943733682F83E090E00C9464
:104570004B3384E090E00C943733682F84E090E074
:104580000C944B3386E090E00C943733682F86E030
:1045900090E00C944B3320E030E040E0FC01E20F6F
:1045A000F31F518151114F5F2F5F3F4F2F31310565
:1045B000A9F7842F089520E030E04FEFFC01E20FCF
:1045C000F31F5281561799F04F3F19F4511101C052
:1045D000422F2F5F3F4F2E31310581F74F3F39F08A
:1045E000FC01E40FF11D47FDFA95628308950895DB
:1045F00020E030E0FC01E20FF31F4281461301C0CE
:1046000012822F5F3F4F2E313105A1F70895262FDB
:104610002695269526952F3170F4FC01E20FF11DA9
:10462000677021E030E0062E01C0220F0A94EAF7FD
:104630008181822B81830895262F269526952695A4
:104640002F3178F4FC01E20FF11D677021E030E0BA
:10465000062E01C0220F0A94EAF7209581812823B3
:104660002183089520911401222329F02091A90289
:1046700027FD0C9407230C94DB22209114012223A4
:1046800029F02091A90227FD0C941C230C94F822F8
:1046900020E030E0FC01E20FF31F11822F5F3F4F5B
:1046A0002F313105B9F7089508950C945423809162
:1046B000B002843049F11092410220E488E190E098
:1046C0000FB6F894A895809360000FBE2093600009
:1046D00080E00E94B50B80E00E94250C0E945523CB
:1046E00083B7817F846083BF83B7816083BF789401
:1046F000889583B78E7F83BF88E10FB6F894809347
:104700006000109260000FBE089508950895CF9341
:104710000E9485230E945E0F0E948623C0E08C2F9A
:104720000E940A10892B29F4CF5FC630C1F780E0C0
:1047300001C081E0CF91089508950C949C230E94BC
:10474000121C0E94DB270E9463160E94250C0C9409
:104750009D231F920F920FB60F9211248F939F9358
:10476000AF93BF9380914102811113C08091A50244
:104770009091A602A091A702B091A8024196A11D16
:10478000B11D8093A5029093A602A093A702B093B7
:10479000A802BF91AF919F918F910F900FBE0F9084
:1047A0001F90189582E084BD93E095BD9AEF97BD68
:1047B00080936E0008952FB7F8948091A502909190
:1047C000A602A091A702B091A8022FBF0895CF9290
:1047D000DF92EF92FF920F931F932FB7F8944091BF
:1047E000A5025091A6026091A7027091A8022FBF66
:1047F0006A017B01EE24FF248C0120E030E0C0162A
:10480000D106E206F30610F441505109481B590B3A
:10481000CA011F910F91FF90EF90DF90CF90089504
:1048200078941F920F920FB60F9211248F939F933B
:10483000AF93BF938091A5029091A602A091A70289
:10484000B091A8020196A11DB11D8093A50290937D
:10485000A602A093A702B093A802BF91AF919F9127
:104860008F910F900FBE0F901F90189581E080934D
:10487000E00080E28093D8001092C9008FE19EE4AE
:104880000197F1F700C0000087E090EBDC01809316
:10489000B9029093BA02A093BB02B093BC022CE081
:1048A00088E190E00FB6F894A895809360000FBE61
:1048B00020936000FFCFBF92CF92DF92EF92FF92E2
:1048C0000F931F93CF93DF93B12C01E010E0E82EFC
:1048D000F12C8B2D0E940A106C01C0E0D0E09801F1
:1048E0000C2E02C0220F331F0A94E2F72C213D2127
:1048F000232B29F42196C031D10589F70AC06C2FEA
:104900007B2D80E00E94270CE816F90699F781E0DC
:1049100005C0B39486E0B812DCCF80E0DF91CF9180
:104920001F910F91FF90EF90DF90CF90BF9008956F
:10493000CF93C82F8CE20E945B24882321F08C2F18
:10494000CF910C945B2480E0CF910895CF930E9487
:104950009C22811102C00E947622C5E6C15049F016
:104960000E945E0F8FE39CE90197F1F700C0000001
:10497000F5CF89E20E94982481110DC18AE20E943C
:10498000982481110E94762285E00E94982481114A
:104990000E9436240E94A7228093400287E00E9452
:1049A0009824882399F18BE10E949824882351F060
:1049B0009091400291FB882780F921E0822780FBBB
:1049C00091F922C08EE00E949824882351F09091A2
:1049D000400292FB882780F921E0822780FB92F930
:1049E00013C080E10E94982490914002882341F0F6
:1049F00093FB882780F921E0822780FB93F904C08C
:104A0000892F809580FB90F990934002809140021D
:104A10000E94AB220E94B92290E09093AA02809358
:104A2000A90280EE0E949824882341F08091A90277
:104A3000982F909590FB80F98093A90289E30E94BA
:104A40009824882359F09091A90291FB882780F936
:104A500021E0822780FB91F99093A90282EE0E94C7
:104A60009824882359F09091A90292FB882780F915
:104A700021E0822780FB92F99093A90286EE0E94A2
:104A80009824882359F09091A90293FB882780F9F4
:104A900021E0822780FB93F99093A90283EE0E9484
:104AA0009824882359F09091A90294FB882780F9D3
:104AB00021E0822780FB94F99093A90285E30E946C
:104AC0009824882359F09091A90295FB882780F9B2
:104AD00021E0822780FB95F99093A90281E30E944F
:104AE0009824882359F09091A90296FB882780F991
:104AF00021E0822780FB96F99093A90281E10E9430
:104B00009824882359F09091A90297FB882780F96F
:104B100021E0822780FB97F99093A9028091A90256
:104B20000E94BD2287E20E949824C82F8EE10E9435
:104B300098248111C2608FE10E9498248111C46081
:104B400080E20E9498248111C86081E20E9498242A
:104B50008111C06182E20E9498248111C06283E2C7
:104B60000E9498248111C06484E20E9498248823C2
:104B700011F0C06802C0CC2329F08C2F0E94B4220F
:104B80006C2F03C00E94B022682F70E080E090E09C
:104B9000CF910C942720CF9108958091440280FFFB
:104BA0000BC06091070185E0689FB00111247595E5
:104BB0006795759567952AC081FF09C060910701C7
:104BC00085E0689FB0011124759567951FC082FF2D
:104BD00007C06091070185E0689FB001112416C0ED
:104BE000409145024423C9F060910601461788F7B9
:104BF0002091070185E0289F90011124429FC00168
:104C0000439F900D112470E00E94E13260387105DD
:104C100040F46115710539F002C065E070E0862F3F
:104C200008958FE7089581E008958091440280FF00
:104C300008C06091050170E0759567957595679559
:104C400021C081FF06C06091050170E075956795F0
:104C500019C082FF04C06091050170E010C080910E
:104C600045028823C1F0609104018617A0F7909156
:104C70000501989FC001112470E00E94E132603864
:104C8000710528F46115710521F0862F08958FE7CD
:104C9000089581E0089561E070E0F4CF803F21F451
:104CA0000E94CD25819504C0813F29F40E94CD2525
:104CB000809348020895823F21F40E94CD2581957A
:104CC00004C0833F29F40E94CD25809347020895B4
:104CD000893F19F40E94152605C08A3F31F40E94CD
:104CE000152681958093490208958B3F21F40E94F7
:104CF0001526819504C08C3F29F40E9415268093C7
:104D00004A020895843F21F480914602816017C0D1
:104D1000853F21F480914602826011C0863F21F4D4
:104D20008091460284600BC0873F21F48091460247
:104D3000886005C0883F31F480914602806180938D
:104D4000460208958D3F21F48091440281600BC09A
:104D50008E3F21F480914402826005C08F3F29F488
:104D6000809144028460809344020895803F39F426
:104D70008091480287FF6CC01092480269C0813F51
:104D800029F4809148021816BCF362C09091470242
:104D9000823F29F497FF5CC01092470259C0833FBD
:104DA00019F41916CCF354C0893F41F4809149029B
:104DB00018160CF04DC0109249024AC08A3F29F4DF
:104DC0008091490287FF44C0F6CF8B3F39F4809130
:104DD0004A0287FF3DC010924A023AC08C3F29F434
:104DE00080914A021816BCF333C0843F21F48091AD
:104DF00046028E7F17C0853F21F4809146028D7F49
:104E000011C0863F21F4809146028B7F0BC0873F03
:104E100021F480914602877F05C0883F31F480915C
:104E200046028F7E8093460213C08D3F21F480910D
:104E300044028E7F0BC08E3F21F4809144028D7F0F
:104E400005C08F3F29F4809144028B7F80934402F8
:104E50008091470281110EC08091480281110AC0E1
:104E600080914902811106C080914A02811102C0DD
:104E700010924502089586E492E00E947A160E94FC
:104E8000DB23909343028093420208951F93CF93B4
:104E9000DF9380914202909143020E94E723409168
:104EA0004502442321F02091080130E006C0209102
:104EB00009015AE0259F900111248217930708F4F5
:104EC0006AC08091470210914802D0914902C09176
:104ED0004A02811107C0111105C0D11103C0CC23B2
:104EE00009F459C04F3F19F04F5F4093450218161F
:104EF00024F40E94CD25809347028091470287FFCA
:104F000005C00E94CD25819580934702111624F497
:104F10000E94CD25809348028091480287FF05C0FA
:104F20000E94CD258195809348022091470222233B
:104F300079F040914802442359F055EB2503900144
:104F40001124309347024503C00111249093480275
:104F50001D1624F40E94152680934902809149026F
:104F600087FF05C00E9415268195809349021C1673
:104F700024F40E94152680934A0280914A0287FFFA
:104F800005C00E941526819580934A02DF91CF913A
:104F90001F910C943B27DF91CF911F910895E6E478
:104FA000F2E085E0DF011D928A95E9F71092450253
:104FB0001092440208950E949C22811102C00E9416
:104FC00076220E94C2228093AB02282F269530E0E1
:104FD0002630310524F081708A608093AB02809185
:104FE000AB0280FF02C0869501C080E00C94B50B37
:104FF0002091AB02322F3695832F90E0059744F431
:1050000091E0930F990F822F8170892B8093AB02CF
:105010008091AB0281608093AB020E94C622809196
:10502000AB0286950C94B50B8091AB02982F9695A8
:1050300091F09158990F8170892B8093AB028E7FEC
:1050400091E009F490E08091AB0290FB80F98093AD
:10505000AB020E94C6228091AB0286950C94B50BE0
:105060008091AB02982F909590FB80F98093AB02D2
:10507000813019F483E08093AB028091AB020E94EF
:10508000C6228091AB0280FF02C0869501C080E0FD
:105090000C94B50B3091AB02232F26952F5F2F7701
:1050A000822F90E0317006972CF4220F232B20934F
:1050B000AB0202C03093AB028091AB028E7F91E0D5
:1050C00009F490E08091AB0290FB80F98093AB02F1
:1050D0000E94C6228091AB0286950C94B50B863057
:1050E00008F085E0880F9091AB029170982B909317
:1050F000AB029E7F21E009F420E08091AB0220FB0F
:1051000080F98093AB020E94C6228091AB02869503
:105110000C94B50B80916B0208950F931F93CF935E
:10512000DF9300D01F92CDB7DEB78C010E94032B16
:10513000823011F0843019F583E089831B830A8360
:105140008093E9008FEF9091E800815095FD06C0B3
:1051500095ED9A95F1F700008111F5CF8091E80067
:1051600085FF0DC040E050E063E070E0CE010196A5
:105170000E94202B8091E8008E778093E8000F90AA
:105180000F900F90DF91CF911F910F910895CF93C2
:10519000DF9300D01F92CDB7DEB72091B00224304C
:1051A00031F522E02983805891099B838A8383E02B
:1051B0008093E9008FEF9091E800815095FD06C043
:1051C00095ED9A95F1F700008111F5CF8091E800F7
:1051D00085FF0DC040E050E063E070E0CE01019635
:1051E0000E94202B8091E8008E778093E8000F903A
:1051F0000F900F90DF91CF910895CF93DF93EC0143
:105200000E94032B823011F08430F9F482E0809305
:10521000E9008FEF9091E800815095FD06C095ED73
:105220009A95F1F700008111F5CF8091E80085FF94
:105230000CC040E050E065E070E0CE010E94202B01
:105240008091E8008E778093E800DF91CF910895F8
:10525000CF93DF93EC010E94032B823019F084304E
:1052600009F047C0809114018823E1F08091A902E0
:1052700087FF18C084E08093E9008FEF9091E800E9
:10528000815095FD06C095E19A95F1F700008111D6
:10529000F5CF8091E80085FF2CC040E050E060E24F
:1052A00070E017C081E08093E9008FEF9091E800F3
:1052B000815095FD06C095ED9A95F1F7000081119A
:1052C000F5CF8091E80085FF14C040E050E068E031
:1052D00070E0CE010E94202B8091E8008E778093B1
:1052E000E80080E2FE01ABE4B2E001900D928A9505
:1052F000E1F7DF91CF9108958091AF02811109C04C
:105300000E94B22C0E940F2D8091E2008460809355
:10531000E20008951092AF020895089508950C9444
:105320009F2342E061EC81E00E942C2C42E061EC82
:1053300082E00E942C2C42E061EC83E00E942C2C45
:1053400042E261EC84E00C942C2C8091B202833018
:1053500009F455C030F4813071F0823009F48EC008
:1053600008958A3009F47AC08B3009F460C089301E
:1053700009F09CC020C08091B102813A09F096C02A
:105380008091E800877F8093E8008091B50290913A
:10539000B602892B21F060E080E090E003C060E27B
:1053A0008BE492E070E00E94692B8091E8008B779B
:1053B0008093E80008958091B102813209F076C0AF
:1053C0008091B5029091B602009719F0039709F009
:1053D0006DC08091E800877F8093E8008091E800AD
:1053E00082FD05C08091B0028111F8CF5FC080912D
:1053F000F10080936B028091E8008B7753C080911D
:10540000B102813A09F052C08091B5029091B60282
:10541000892B09F04BC08091E800877F8093E800DA
:105420008091E80080FFFCCF8091140136C080910C
:10543000B1028132D9F58091B5029091B602892BE3
:10544000A9F58091E800877F8093E8000E94612C95
:105450008091B302809314010C94121C8091B102CC
:10546000813221F58091E800877F8093E8000E94D7
:10547000612C8091B40280936C0208958091B102F6
:10548000813AA1F48091E800877F8093E8008091C1
:10549000E80080FFFCCF80916C028093F100809146
:1054A000E8008E778093E8000C94612C089584B70F
:1054B000877F84BF88E10FB6F894809360001092D4
:1054C00060000FBE80E880936100109261000E942E
:1054D000B2160E94B22C0E940F2D8091E2008460CF
:1054E0008093E20078940E94922F0E94B6168AE080
:1054F00091E00E945E168091B002853069F40E94AE
:1055000057238091AE028823B1F30E94872388231A
:1055100091F30E940A2BEFCF0E94C0160E94EC1557
:10552000EACF0C94932A292F332723303105A9F091
:105530006CF42130310509F448C02230310509F0FE
:1055400049C08DE690E02AEE3EE048C021323105A8
:10555000F9F02232310549F13DC09927813091059A
:1055600071F02CF4892BB1F5E6EEFEE00DC082302F
:10557000910541F0039771F5E8ECFEE005C0ECED14
:10558000FEE002C0EEECFEE0849190E09F0126C0B8
:1055900064307105F8F4FB01EE0FFF1FE95CFE4F6C
:1055A0002081318189E090E019C06430710590F468
:1055B000FB01EE0FFF1FE15DFE4F20813181FB01FA
:1055C000E55DFE4F808190E009C082E190E027E533
:1055D0003FE004C080E090E020E030E0FA01318359
:1055E000208308950895CF93C82F0E94F22AC09374
:1055F0006D02CF9108958091B002843011F482E061
:10560000089581E0089580916D02811102C00C948B
:10561000FB2A089580E189BD82E189BD09B400FEBD
:10562000FDCF8091D8008F7D8093D8008091E000DD
:1056300082608093E0008091E00081FDFCCF0895BE
:10564000CF92DF92EF92FF920F931F93CF93DF934E
:105650007C018B01EA010E94822C811131C02097CC
:1056600031F088819981081B190BE80EF91EC12CB5
:10567000D12C0115110519F18091E80085FD14C0A8
:105680008091E8008E778093E800209741F0888130
:1056900099818C0D9D1D9983888385E011C00E949E
:1056A000822C882331F30CC0F70181917F01809314
:1056B000F10001501109FFEFCF1ADF0ADACF80E0C5
:1056C000DF91CF911F910F91FF90EF90DF90CF90DE
:1056D00008952091B7023091B8022617370748F095
:1056E0006115710539F42091E8002E772093E800C8
:1056F00001C0B901FC0120E061157105B9F180918B
:10570000B002882309F440C0853009F43FC080917D
:10571000E80083FD3DC08091E80082FF06C08091D3
:10572000E80082FF26C080E008958091E80080FFB5
:10573000E3CF2091F3008091F20090E0922B61156D
:10574000710551F08830910538F421912093F100D2
:10575000615071090196F3CF21E0089709F020E02C
:105760008091E8008E778093E800C6CF2111C7CFE3
:10577000D6CF8091B002882339F0853039F08091FE
:10578000E80083FFCCCF04C082E0089583E0089551
:1057900081E008952091B7023091B80226173707AB
:1057A00048F06115710539F42091E8002E772093B7
:1057B000E80001C0B901FC0120E061157105C1F1EB
:1057C0008091B002882309F441C0853009F440C0BB
:1057D0008091E80083FD3EC08091E80082FF06C012
:1057E0008091E80082FF27C080E008958091E80062
:1057F00080FFE3CF2091F3008091F20090E0922BA4
:105800006115710559F08830910540F42491209379
:10581000F1003196615071090196F2CF21E00897AD
:1058200009F020E08091E8008E778093E800C5CFF2
:105830002111C6CFD5CF8091B002882339F08530B1
:1058400039F08091E80083FFCBCF04C082E0089557
:1058500083E0089581E00895982F973058F590934C
:10586000E900981739F07091EC002091ED0050910B
:10587000F00003C0242F762F50E021FF19C0309193
:10588000EB003E7F3093EB003091ED003D7F309395
:10589000ED003091EB0031603093EB007093EC0041
:1058A0002093ED005093F0002091EE0027FF07C0F9
:1058B0009F5FD3CF8F708093E90081E0089580E0EF
:1058C00008958091B10287FD05C08091E80080FFB6
:1058D0000EC012C08091E80082FD05C08091B00228
:1058E0008111F8CF08958091E8008B7708C08091EE
:1058F000B0028111EACF08958091E8008E778093FD
:10590000E80008958091E4009091E50045E620913B
:10591000EC0020FF21C02091E80020FD21C0209153
:10592000B002222389F0253089F02091EB0025FD7B
:105930000FC02091E4003091E5002817390739F3B2
:10594000415041F0C901E3CF82E0089583E008951A
:1059500081E0089584E008952091E80022FFDFCFE0
:1059600080E008950E94202D0E94282DE0EEF0E0B6
:10597000808181608083E8EDF0E080818F77808393
:1059800019BCA7EDB0E08C918E7F8C9380818F7EC7
:1059900080831092AF0208950F931F93CF93DF93EC
:1059A0000E94202D0E94282DC8EDD0E088818F779D
:1059B000888388818068888388818F7D888319BCEB
:1059C0001092B0021092AC021092AE021092AD0290
:1059D00000EE10E0F80180818B7F808388818160F8
:1059E000888342E060E080E00E942C2CE1EEF0E051
:1059F00080818E7F8083E2EEF0E080818160808311
:105A0000808188608083F80180818E7F8083888197
:105A100080618883DF91CF911F910F910895E8ED08
:105A2000F0E080818F7E8083E7EDF0E0808181600F
:105A3000808384E082BF81E08093AF020C94CC2C01
:105A4000E8EDF0E080818E7F80831092E20008957F
:105A50001092DA001092E10008951F920F920FB693
:105A60000F9211242F933F934F935F936F937F93E4
:105A70008F939F93AF93BF93EF93FF938091E10038
:105A800082FF0BC08091E20082FF07C08091E1009D
:105A90008B7F8093E1000E94912F8091DA0080FF3C
:105AA0001FC08091D80080FF1BC08091DA008E7FDC
:105AB0008093DA008091D90080FF0DC080E189BD1C
:105AC00082E189BD09B400FEFDCF81E08093B00280
:105AD0000E947C2905C019BC1092B0020E948A293C
